{
  "contractName": "codeValidation",
  "abi": [
    {
      "inputs": [
        {
          "name": "_companyName",
          "type": "string"
        }
      ],
      "payable": false,
      "stateMutability": "nonpayable",
      "type": "constructor"
    },
    {
      "anonymous": false,
      "inputs": [
        {
          "indexed": false,
          "name": "_creator",
          "type": "address"
        },
        {
          "indexed": false,
          "name": "_fileName",
          "type": "string"
        },
        {
          "indexed": false,
          "name": "_codeHash",
          "type": "string"
        }
      ],
      "name": "hashAdded",
      "type": "event"
    },
    {
      "constant": false,
      "inputs": [
        {
          "name": "_codeHash",
          "type": "string"
        },
        {
          "name": "_fileName",
          "type": "string"
        }
      ],
      "name": "addHash",
      "outputs": [
        {
          "name": "success",
          "type": "bool"
        }
      ],
      "payable": false,
      "stateMutability": "nonpayable",
      "type": "function"
    }
  ],
  "bytecode": "0x608060405260008060006101000a81548173ffffffffffffffffffffffffffffffffffffffff021916908373ffffffffffffffffffffffffffffffffffffffff1602179055506040805190810160405280600481526020017f4e6f6e65000000000000000000000000000000000000000000000000000000008152506001908051906020019061009092919061011d565b5034801561009d57600080fd5b5060405161065a38038061065a83398101806040528101908080518201929190505050336000806101000a81548173ffffffffffffffffffffffffffffffffffffffff021916908373ffffffffffffffffffffffffffffffffffffffff160217905550806001908051906020019061011692919061011d565b50506101c2565b828054600181600116156101000203166002900490600052602060002090601f016020900481019282601f1061015e57805160ff191683800117855561018c565b8280016001018555821561018c579182015b8281111561018b578251825591602001919060010190610170565b5b509050610199919061019d565b5090565b6101bf91905b808211156101bb5760008160009055506001016101a3565b5090565b90565b610489806101d16000396000f300608060405260043610610041576000357c0100000000000000000000000000000000000000000000000000000000900463ffffffff168063c2a0801514610046575b600080fd5b34801561005257600080fd5b506100f3600480360381019080803590602001908201803590602001908080601f0160208091040260200160405190810160405280939291908181526020018383808284378201915050505050509192919290803590602001908201803590602001908080601f016020809104026020016040519081016040528093929190818152602001838380828437820191505050505050919291929050505061010d565b604051808215151515815260200191505060405180910390f35b60008060009054906101000a900473ffffffffffffffffffffffffffffffffffffffff1673ffffffffffffffffffffffffffffffffffffffff163373ffffffffffffffffffffffffffffffffffffffff1614151561016a57600080fd5b826002836040518082805190602001908083835b6020831015156101a3578051825260208201915060208101905060208303925061017e565b6001836020036101000a038019825116818451168082178552505050505050905001915050908152602001604051809103902090805190602001906101e99291906103b8565b507f5a0417c3e439bd3dc30ff6a5d1ff557000aa8f68ca9c94e8e3370f1b43b773db33836002856040518082805190602001908083835b6020831015156102455780518252602082019150602081019050602083039250610220565b6001836020036101000a0380198251168184511680821785525050505050509050019150509081526020016040518091039020604051808473ffffffffffffffffffffffffffffffffffffffff1673ffffffffffffffffffffffffffffffffffffffff1681526020018060200180602001838103835285818151815260200191508051906020019080838360005b838110156102ee5780820151818401526020810190506102d3565b50505050905090810190601f16801561031b5780820380516001836020036101000a031916815260200191505b5083810382528481815460018160011615610100020316600290048152602001915080546001816001161561010002031660029004801561039d5780601f106103725761010080835404028352916020019161039d565b820191906000526020600020905b81548152906001019060200180831161038057829003601f168201915b50509550505050505060405180910390a16001905092915050565b828054600181600116156101000203166002900490600052602060002090601f016020900481019282601f106103f957805160ff1916838001178555610427565b82800160010185558215610427579182015b8281111561042657825182559160200191906001019061040b565b5b5090506104349190610438565b5090565b61045a91905b8082111561045657600081600090555060010161043e565b5090565b905600a165627a7a7230582056662f22208b7aecae05ce49f485009e703dd1db79105d167649a40a1a14dd1d0029",
  "source": "pragma solidity ^0.4.21;\n\ncontract codeValidation {\n  address creator = address(0);\n  string companyName = \"None\";\n  mapping (string => string) codeHashes; \n  event hashAdded(address _creator, string _fileName, string _codeHash);\n\n  constructor(string _companyName) public {\n    creator = msg.sender;\n    companyName = _companyName;\n  }\n\n  function addHash(string _codeHash, string _fileName) public returns (bool success) {\n    require(msg.sender == creator);\n    codeHashes[_fileName] = _codeHash;\n    emit hashAdded(msg.sender, _fileName, codeHashes[_fileName]);\n    return true;\n  }\n}\n  \n",
  "sourcePath": "/media/kareem/09F434A51ACAE825/Documents/Classes/blockChain/project/cs359b-imagetrust/imageTrust/contracts/validation.sol",
  "compiler": {
    "name": "solc",
    "version": "0.4.23+commit.124ca40d.Emscripten.clang"
  },
  "schemaVersion": "2.0.0",
  "updatedAt": "2018-05-11T06:29:31.132Z"
}