{
  "contractName": "codeValidation",
  "abi": [
    {
      "inputs": [
        {
          "name": "_companyName",
          "type": "string"
        }
      ],
      "payable": false,
      "stateMutability": "nonpayable",
      "type": "constructor"
    },
    {
      "anonymous": false,
      "inputs": [
        {
          "indexed": false,
          "name": "_creator",
          "type": "address"
        },
        {
          "indexed": false,
          "name": "_fileName",
          "type": "string"
        },
        {
          "indexed": false,
          "name": "_codeHash",
          "type": "bytes32"
        }
      ],
      "name": "hashAdded",
      "type": "event"
    },
    {
      "constant": false,
      "inputs": [
        {
          "name": "_codeHash",
          "type": "bytes32"
        },
        {
          "name": "_fileName",
          "type": "string"
        }
      ],
      "name": "addHash",
      "outputs": [
        {
          "name": "success",
          "type": "bool"
        }
      ],
      "payable": false,
      "stateMutability": "nonpayable",
      "type": "function"
    }
  ],
  "bytecode": "0x608060405260008060006101000a81548173ffffffffffffffffffffffffffffffffffffffff021916908373ffffffffffffffffffffffffffffffffffffffff1602179055506040805190810160405280600481526020017f4e6f6e65000000000000000000000000000000000000000000000000000000008152506001908051906020019061009092919061011d565b5034801561009d57600080fd5b506040516104f83803806104f883398101806040528101908080518201929190505050336000806101000a81548173ffffffffffffffffffffffffffffffffffffffff021916908373ffffffffffffffffffffffffffffffffffffffff160217905550806001908051906020019061011692919061011d565b50506101c2565b828054600181600116156101000203166002900490600052602060002090601f016020900481019282601f1061015e57805160ff191683800117855561018c565b8280016001018555821561018c579182015b8281111561018b578251825591602001919060010190610170565b5b509050610199919061019d565b5090565b6101bf91905b808211156101bb5760008160009055506001016101a3565b5090565b90565b610327806101d16000396000f300608060405260043610610041576000357c0100000000000000000000000000000000000000000000000000000000900463ffffffff16806331d549f814610046575b600080fd5b34801561005257600080fd5b506100bb6004803603810190808035600019169060200190929190803590602001908201803590602001908080601f01602080910402602001604051908101604052809392919081815260200183838082843782019150505050505091929192905050506100d5565b604051808215151515815260200191505060405180910390f35b60008060009054906101000a900473ffffffffffffffffffffffffffffffffffffffff1673ffffffffffffffffffffffffffffffffffffffff163373ffffffffffffffffffffffffffffffffffffffff1614151561013257600080fd5b826002836040518082805190602001908083835b60208310151561016b5780518252602082019150602081019050602083039250610146565b6001836020036101000a038019825116818451168082178552505050505050905001915050908152602001604051809103902081600019169055507f1ad3968e7c10aa29b22568215d4c0970f06a041c9434c00d4da6a4e99377cba233836002856040518082805190602001908083835b60208310151561020157805182526020820191506020810190506020830392506101dc565b6001836020036101000a038019825116818451168082178552505050505050905001915050908152602001604051809103902054604051808473ffffffffffffffffffffffffffffffffffffffff1673ffffffffffffffffffffffffffffffffffffffff168152602001806020018360001916600019168152602001828103825284818151815260200191508051906020019080838360005b838110156102b557808201518184015260208101905061029a565b50505050905090810190601f1680156102e25780820380516001836020036101000a031916815260200191505b5094505050505060405180910390a160019050929150505600a165627a7a72305820201a35172c4bd12a44b76c0a2266889834c6047641ec1f803e3e6bfab438c7220029",
  "source": "pragma solidity ^0.4.21;\n\ncontract codeValidation {\n  address creator = address(0);\n  string companyName = \"None\";\n  mapping (string => bytes32) codeHashes; \n  event hashAdded(address _creator, string _fileName, bytes32 _codeHash);\n\n  constructor(string _companyName) public {\n    creator = msg.sender;\n    companyName = _companyName;\n  }\n\n  function addHash(bytes32 _codeHash, string _fileName) public returns (bool success) {\n    require(msg.sender == creator);\n    codeHashes[_fileName] = _codeHash;\n    emit hashAdded(msg.sender, _fileName, codeHashes[_fileName]);\n    return true;\n  }\n}\n  \n",
  "sourcePath": "/media/kareem/09F434A51ACAE825/Documents/Classes/blockChain/project/cs359b-imagetrust/imageTrust/contracts/validation.sol",
  "compiler": {
    "name": "solc",
    "version": "0.4.23+commit.124ca40d.Emscripten.clang"
  },
  "schemaVersion": "2.0.0",
  "updatedAt": "2018-05-11T04:26:03.086Z"
}