{
  "contractName": "codeValidation",
  "abi": [
    {
      "constant": true,
      "inputs": [],
      "name": "imageTrust",
      "outputs": [
        {
          "name": "",
          "type": "address"
        }
      ],
      "payable": false,
      "stateMutability": "view",
      "type": "function"
    },
    {
      "constant": true,
      "inputs": [],
      "name": "owner",
      "outputs": [
        {
          "name": "",
          "type": "address"
        }
      ],
      "payable": false,
      "stateMutability": "view",
      "type": "function"
    },
    {
      "inputs": [
        {
          "name": "_companyName",
          "type": "string"
        }
      ],
      "payable": false,
      "stateMutability": "nonpayable",
      "type": "constructor"
    },
    {
      "anonymous": false,
      "inputs": [
        {
          "indexed": false,
          "name": "_creator",
          "type": "address"
        },
        {
          "indexed": false,
          "name": "_fileName",
          "type": "bytes32"
        },
        {
          "indexed": false,
          "name": "_codeHash",
          "type": "string"
        }
      ],
      "name": "hashAdded",
      "type": "event"
    },
    {
      "constant": false,
      "inputs": [
        {
          "name": "_companyName",
          "type": "bytes32"
        }
      ],
      "name": "addAddress",
      "outputs": [],
      "payable": false,
      "stateMutability": "nonpayable",
      "type": "function"
    },
    {
      "constant": false,
      "inputs": [
        {
          "name": "_companyName",
          "type": "bytes32"
        },
        {
          "name": "_fileName",
          "type": "bytes32"
        },
        {
          "name": "_codeHash",
          "type": "string"
        }
      ],
      "name": "addSoftInfo",
      "outputs": [
        {
          "name": "success",
          "type": "bool"
        }
      ],
      "payable": false,
      "stateMutability": "nonpayable",
      "type": "function"
    },
    {
      "constant": true,
      "inputs": [
        {
          "name": "_companyName",
          "type": "bytes32"
        },
        {
          "name": "_fileName",
          "type": "bytes32"
        },
        {
          "name": "_fileHash",
          "type": "string"
        }
      ],
      "name": "viewSoftInfo",
      "outputs": [
        {
          "name": "",
          "type": "bool"
        }
      ],
      "payable": false,
      "stateMutability": "view",
      "type": "function"
    }
  ],
  "bytecode": "0x608060405273e4fe1a25ba4aab866f00285088d20e39cd2c9d3e600160006101000a81548173ffffffffffffffffffffffffffffffffffffffff021916908373ffffffffffffffffffffffffffffffffffffffff1602179055506000600260006101000a81548173ffffffffffffffffffffffffffffffffffffffff021916908373ffffffffffffffffffffffffffffffffffffffff1602179055506040805190810160405280600481526020017f4e6f6e6500000000000000000000000000000000000000000000000000000000815250600390805190602001906100e69291906101b4565b503480156100f357600080fd5b506040516108f83803806108f883398101806040528101908080518201929190505050336000806101000a81548173ffffffffffffffffffffffffffffffffffffffff021916908373ffffffffffffffffffffffffffffffffffffffff16021790555033600260006101000a81548173ffffffffffffffffffffffffffffffffffffffff021916908373ffffffffffffffffffffffffffffffffffffffff16021790555080600390805190602001906101ad9291906101b4565b5050610259565b828054600181600116156101000203166002900490600052602060002090601f016020900481019282601f106101f557805160ff1916838001178555610223565b82800160010185558215610223579182015b82811115610222578251825591602001919060010190610207565b5b5090506102309190610234565b5090565b61025691905b8082111561025257600081600090555060010161023a565b5090565b90565b610690806102686000396000f30060806040526004361061006d576000357c0100000000000000000000000000000000000000000000000000000000900463ffffffff16806322ae1d8a146100725780632963bb6b1461010f5780636661968a146101665780638aed3c32146102035780638da5cb5b14610234575b600080fd5b34801561007e57600080fd5b506100f560048036038101908080356000191690602001909291908035600019169060200190929190803590602001908201803590602001908080601f016020809104026020016040519081016040528093929190818152602001838380828437820191505050505050919291929050505061028b565b604051808215151515815260200191505060405180910390f35b34801561011b57600080fd5b506101246103a3565b604051808273ffffffffffffffffffffffffffffffffffffffff1673ffffffffffffffffffffffffffffffffffffffff16815260200191505060405180910390f35b34801561017257600080fd5b506101e960048036038101908080356000191690602001909291908035600019169060200190929190803590602001908201803590602001908080601f01602080910402602001604051908101604052809392919081815260200183838082843782019150505050505091929192905050506103c9565b604051808215151515815260200191505060405180910390f35b34801561020f57600080fd5b50610232600480360381019080803560001916906020019092919050505061054f565b005b34801561024057600080fd5b5061024961059a565b604051808273ffffffffffffffffffffffffffffffffffffffff1673ffffffffffffffffffffffffffffffffffffffff16815260200191505060405180910390f35b60008060046000866000191660001916815260200190815260200160002060008560001916600019168152602001908152602001600020604051808280546001816001161561010002031660029004801561031d5780601f106102fb57610100808354040283529182019161031d565b820191906000526020600020905b815481529060010190602001808311610309575b5050915050604051809103902060001916836040518082805190602001908083835b602083101515610364578051825260208201915060208101905060208303925061033f565b6001836020036101000a038019825116818451168082178552505050505050905001915050604051809103902060001916149050809150509392505050565b600160009054906101000a900473ffffffffffffffffffffffffffffffffffffffff1681565b6000816004600086600019166000191681526020019081526020016000206000856000191660001916815260200190815260200160002090805190602001906104139291906105bf565b507f2d460900e5fa383ff837a1bbc808d61ace255dfbb7bae3fc35656dceb4f53c32338460046000886000191660001916815260200190815260200160002060008760001916600019168152602001908152602001600020604051808473ffffffffffffffffffffffffffffffffffffffff1673ffffffffffffffffffffffffffffffffffffffff1681526020018360001916600019168152602001806020018281038252838181546001816001161561010002031660029004815260200191508054600181600116156101000203166002900480156105345780601f1061050957610100808354040283529160200191610534565b820191906000526020600020905b81548152906001019060200180831161051757829003601f168201915b505094505050505060405180910390a1600190509392505050565b80600560003373ffffffffffffffffffffffffffffffffffffffff1673ffffffffffffffffffffffffffffffffffffffff168152602001908152602001600020816000191690555050565b6000809054906101000a900473ffffffffffffffffffffffffffffffffffffffff1681565b828054600181600116156101000203166002900490600052602060002090601f016020900481019282601f1061060057805160ff191683800117855561062e565b8280016001018555821561062e579182015b8281111561062d578251825591602001919060010190610612565b5b50905061063b919061063f565b5090565b61066191905b8082111561065d576000816000905550600101610645565b5090565b905600a165627a7a72305820bbb534277abfdd1c5e9933991f90e816f776a507776cec8e9f6fda22d79d121c0029",
  "source": "pragma solidity ^0.4.21;\n\nimport \"./ownable.sol\";\n\n\ncontract codeValidation is Ownable{\n  address CREATOR = address(0);\n  string COMPANYNAME = \"None\";\n  mapping (bytes32 => mapping (bytes32 => string)) codeHashes; \n  mapping (address => bytes32) companyAffiliations;\n  event hashAdded(address _creator, bytes32 _fileName, string _codeHash);\n\n  constructor(string _companyName) public {\n    CREATOR = msg.sender;\n    COMPANYNAME = _companyName;\n  }\n\n\n  // Currently made public for demonstration purposes\n  //function addAddress(bytes32 _companyName, address _pubKey) onlyOwner {\n  function addAddress(bytes32 _companyName) public {\n    companyAffiliations[msg.sender] = _companyName;\n  }\n\n  ////////////////////////////////////////////////////////////////////////\n  //  Adds code information to the blockchain by adding the code hash   //\n  //  to this.codeHashes and indexing with company and file name.       //\n  //    _companyName: Name of the company validating the code           //\n  //    _fileName:  Name of the file                                    //\n  //    _codeHash: Hash of the code being validated                     //\n  ////////////////////////////////////////////////////////////////////////\n  function addSoftInfo(bytes32 _companyName, bytes32 _fileName, string _codeHash) public returns (bool success) {\n    //require(_companyName == companyAffiliations[msg.sender]);\n    codeHashes[_companyName][_fileName] = _codeHash;\n    emit hashAdded(msg.sender, _fileName, codeHashes[_companyName][_fileName]);\n    return true;\n  }\n\n\n  ////////////////////////////////////////////////////////////////////////\n  //  Verify that the software is genuine by checking the hash against  //\n  //  the blockchain with the same company and file name.               //\n  //    _companyName: Name of the company validating the code           //\n  //    _fileName:  Name of the file                                    //\n  //    _codeHash: Hash of the code being validated                     //\n  ////////////////////////////////////////////////////////////////////////\n  function viewSoftInfo(bytes32 _companyName, bytes32 _fileName, string _fileHash) public view returns (bool) {\n    bool hashTruth = (keccak256(_fileHash) == keccak256(codeHashes[_companyName][_fileName]));\n    return hashTruth; \n  }\n}\n  \n",
  "sourcePath": "/media/kareem/09F434A51ACAE825/Documents/Classes/blockChain/project/cs359b-imagetrust/imageTrust/contracts/verification.sol",
  "compiler": {
    "name": "solc",
    "version": "0.4.23+commit.124ca40d.Emscripten.clang"
  },
  "schemaVersion": "2.0.0",
  "updatedAt": "2018-06-13T04:08:08.554Z"
}