{
  "contractName": "codeValidation",
  "abi": [
    {
      "inputs": [
        {
          "name": "_companyName",
          "type": "string"
        }
      ],
      "payable": false,
      "stateMutability": "nonpayable",
      "type": "constructor"
    },
    {
      "anonymous": false,
      "inputs": [
        {
          "indexed": false,
          "name": "_creator",
          "type": "address"
        },
        {
          "indexed": false,
          "name": "_fileName",
          "type": "string"
        },
        {
          "indexed": false,
          "name": "_codeHash",
          "type": "string"
        }
      ],
      "name": "hashAdded",
      "type": "event"
    },
    {
      "constant": false,
      "inputs": [
        {
          "name": "_companyName",
          "type": "string"
        },
        {
          "name": "_fileName",
          "type": "string"
        },
        {
          "name": "_codeHash",
          "type": "string"
        }
      ],
      "name": "addSoftInfo",
      "outputs": [
        {
          "name": "success",
          "type": "bool"
        }
      ],
      "payable": false,
      "stateMutability": "nonpayable",
      "type": "function"
    },
    {
      "constant": true,
      "inputs": [
        {
          "name": "_companyName",
          "type": "string"
        },
        {
          "name": "_fileName",
          "type": "string"
        },
        {
          "name": "_fileHash",
          "type": "string"
        }
      ],
      "name": "viewSoftInfo",
      "outputs": [
        {
          "name": "",
          "type": "bool"
        }
      ],
      "payable": false,
      "stateMutability": "view",
      "type": "function"
    }
  ],
  "bytecode": "0x608060405260008060006101000a81548173ffffffffffffffffffffffffffffffffffffffff021916908373ffffffffffffffffffffffffffffffffffffffff1602179055506040805190810160405280600481526020017f4e6f6e65000000000000000000000000000000000000000000000000000000008152506001908051906020019061009092919061011d565b5034801561009d57600080fd5b506040516109e83803806109e883398101806040528101908080518201929190505050336000806101000a81548173ffffffffffffffffffffffffffffffffffffffff021916908373ffffffffffffffffffffffffffffffffffffffff160217905550806001908051906020019061011692919061011d565b50506101c2565b828054600181600116156101000203166002900490600052602060002090601f016020900481019282601f1061015e57805160ff191683800117855561018c565b8280016001018555821561018c579182015b8281111561018b578251825591602001919060010190610170565b5b509050610199919061019d565b5090565b6101bf91905b808211156101bb5760008160009055506001016101a3565b5090565b90565b610817806101d16000396000f30060806040526004361061004c576000357c0100000000000000000000000000000000000000000000000000000000900463ffffffff1680631458deba14610051578063513fedb61461015e575b600080fd5b34801561005d57600080fd5b50610144600480360381019080803590602001908201803590602001908080601f0160208091040260200160405190810160405280939291908181526020018383808284378201915050505050509192919290803590602001908201803590602001908080601f0160208091040260200160405190810160405280939291908181526020018383808284378201915050505050509192919290803590602001908201803590602001908080601f016020809104026020016040519081016040528093929190818152602001838380828437820191505050505050919291929050505061026b565b604051808215151515815260200191505060405180910390f35b34801561016a57600080fd5b50610251600480360381019080803590602001908201803590602001908080601f0160208091040260200160405190810160405280939291908181526020018383808284378201915050505050509192919290803590602001908201803590602001908080601f0160208091040260200160405190810160405280939291908181526020018383808284378201915050505050509192919290803590602001908201803590602001908080601f016020809104026020016040519081016040528093929190818152602001838380828437820191505050505050919291929050505061058e565b604051808215151515815260200191505060405180910390f35b6000816002856040518082805190602001908083835b6020831015156102a65780518252602082019150602081019050602083039250610281565b6001836020036101000a0380198251168184511680821785525050505050509050019150509081526020016040518091039020846040518082805190602001908083835b60208310151561030f57805182526020820191506020810190506020830392506102ea565b6001836020036101000a03801982511681845116808217855250505050505090500191505090815260200160405180910390209080519060200190610355929190610746565b507f5a0417c3e439bd3dc30ff6a5d1ff557000aa8f68ca9c94e8e3370f1b43b773db33846002876040518082805190602001908083835b6020831015156103b1578051825260208201915060208101905060208303925061038c565b6001836020036101000a0380198251168184511680821785525050505050509050019150509081526020016040518091039020866040518082805190602001908083835b60208310151561041a57805182526020820191506020810190506020830392506103f5565b6001836020036101000a0380198251168184511680821785525050505050509050019150509081526020016040518091039020604051808473ffffffffffffffffffffffffffffffffffffffff1673ffffffffffffffffffffffffffffffffffffffff1681526020018060200180602001838103835285818151815260200191508051906020019080838360005b838110156104c35780820151818401526020810190506104a8565b50505050905090810190601f1680156104f05780820380516001836020036101000a031916815260200191505b508381038252848181546001816001161561010002031660029004815260200191508054600181600116156101000203166002900480156105725780601f1061054757610100808354040283529160200191610572565b820191906000526020600020905b81548152906001019060200180831161055557829003601f168201915b50509550505050505060405180910390a1600190509392505050565b6000806002856040518082805190602001908083835b6020831015156105c957805182526020820191506020810190506020830392506105a4565b6001836020036101000a0380198251168184511680821785525050505050509050019150509081526020016040518091039020846040518082805190602001908083835b602083101515610632578051825260208201915060208101905060208303925061060d565b6001836020036101000a038019825116818451168082178552505050505050905001915050908152602001604051809103902060405180828054600181600116156101000203166002900480156106c05780601f1061069e5761010080835404028352918201916106c0565b820191906000526020600020905b8154815290600101906020018083116106ac575b5050915050604051809103902060001916836040518082805190602001908083835b60208310151561070757805182526020820191506020810190506020830392506106e2565b6001836020036101000a038019825116818451168082178552505050505050905001915050604051809103902060001916149050809150509392505050565b828054600181600116156101000203166002900490600052602060002090601f016020900481019282601f1061078757805160ff19168380011785556107b5565b828001600101855582156107b5579182015b828111156107b4578251825591602001919060010190610799565b5b5090506107c291906107c6565b5090565b6107e891905b808211156107e45760008160009055506001016107cc565b5090565b905600a165627a7a72305820a2bf759fb30e995f477e7586e1bca61cb5b8ed6bb6199e00822a19b3307d59e90029",
  "source": "pragma solidity ^0.4.21;\n\ncontract codeValidation {\n  address CREATOR = address(0);\n  string COMPANYNAME = \"None\";\n  mapping (string => mapping (string => string)) codeHashes; \n  event hashAdded(address _creator, string _fileName, string _codeHash);\n\n  constructor(string _companyName) public {\n    CREATOR = msg.sender;\n    COMPANYNAME = _companyName;\n  }\n\n\n  ////////////////////////////////////////////////////////////////////////\n  //  Adds code information to the blockchain by adding the code hash   //\n  //  to this.codeHashes and indexing with company and file name.       //\n  //    _companyName: Name of the company validating the code           //\n  //    _fileName:  Name of the file                                    //\n  //    _codeHash: Hash of the code being validated                     //\n  ////////////////////////////////////////////////////////////////////////\n  function addSoftInfo(string _companyName, string _fileName, string _codeHash) public returns (bool success) {\n    //require(msg.sender == CREATOR);\n    codeHashes[_companyName][_fileName] = _codeHash;\n    emit hashAdded(msg.sender, _fileName, codeHashes[_companyName][_fileName]);\n    return true;\n  }\n\n\n  ////////////////////////////////////////////////////////////////////////\n  //  Verify that the software is genuine by checking the hash against  //\n  //  the blockchain with the same company and file name.               //\n  //    _companyName: Name of the company validating the code           //\n  //    _fileName:  Name of the file                                    //\n  //    _codeHash: Hash of the code being validated                     //\n  ////////////////////////////////////////////////////////////////////////\n  function viewSoftInfo(string _companyName, string _fileName, string _fileHash) public view returns (bool) {\n    bool hashTruth = (keccak256(_fileHash) == keccak256(codeHashes[_companyName][_fileName]));\n    return hashTruth; \n  }\n}\n  \n",
  "sourcePath": "/media/kareem/09F434A51ACAE825/Documents/Classes/blockChain/project/cs359b-imagetrust/imageTrust/contracts/validation.sol",
  "compiler": {
    "name": "solc",
    "version": "0.4.23+commit.124ca40d.Emscripten.clang"
  },
  "schemaVersion": "2.0.0",
  "updatedAt": "2018-05-14T09:25:33.678Z"
}